{
  "_format": "hh-sol-artifact-1",
  "contractName": "IdeaMarket",
  "sourceName": "contracts/IdeaMarket.sol",
  "abi": [
    {
      "anonymous": false,
      "inputs": [
        {
          "indexed": false,
          "internalType": "uint256",
          "name": "id",
          "type": "uint256"
        },
        {
          "indexed": false,
          "internalType": "address",
          "name": "buyer",
          "type": "address"
        }
      ],
      "name": "IdeaBought",
      "type": "event"
    },
    {
      "anonymous": false,
      "inputs": [
        {
          "indexed": false,
          "internalType": "uint256",
          "name": "id",
          "type": "uint256"
        }
      ],
      "name": "IdeaDeleted",
      "type": "event"
    },
    {
      "anonymous": false,
      "inputs": [
        {
          "indexed": false,
          "internalType": "uint256",
          "name": "id",
          "type": "uint256"
        }
      ],
      "name": "IdeaEdited",
      "type": "event"
    },
    {
      "anonymous": false,
      "inputs": [
        {
          "indexed": false,
          "internalType": "uint256",
          "name": "id",
          "type": "uint256"
        },
        {
          "indexed": false,
          "internalType": "string",
          "name": "title",
          "type": "string"
        },
        {
          "indexed": false,
          "internalType": "address",
          "name": "creator",
          "type": "address"
        }
      ],
      "name": "IdeaSubmitted",
      "type": "event"
    },
    {
      "inputs": [
        {
          "internalType": "uint256",
          "name": "id",
          "type": "uint256"
        }
      ],
      "name": "buyIdea",
      "outputs": [],
      "stateMutability": "payable",
      "type": "function"
    },
    {
      "inputs": [
        {
          "internalType": "uint256",
          "name": "",
          "type": "uint256"
        }
      ],
      "name": "buyerOf",
      "outputs": [
        {
          "internalType": "address",
          "name": "",
          "type": "address"
        }
      ],
      "stateMutability": "view",
      "type": "function"
    },
    {
      "inputs": [
        {
          "internalType": "uint256",
          "name": "_id",
          "type": "uint256"
        }
      ],
      "name": "deleteIdea",
      "outputs": [],
      "stateMutability": "nonpayable",
      "type": "function"
    },
    {
      "inputs": [
        {
          "internalType": "uint256",
          "name": "_id",
          "type": "uint256"
        },
        {
          "internalType": "string",
          "name": "_title",
          "type": "string"
        },
        {
          "internalType": "string",
          "name": "_description",
          "type": "string"
        },
        {
          "internalType": "string",
          "name": "_docUrl",
          "type": "string"
        },
        {
          "internalType": "string",
          "name": "_externalLink",
          "type": "string"
        },
        {
          "internalType": "uint256",
          "name": "_price",
          "type": "uint256"
        }
      ],
      "name": "editIdea",
      "outputs": [],
      "stateMutability": "nonpayable",
      "type": "function"
    },
    {
      "inputs": [],
      "name": "getAllIdeas",
      "outputs": [
        {
          "components": [
            {
              "internalType": "uint256",
              "name": "id",
              "type": "uint256"
            },
            {
              "internalType": "string",
              "name": "title",
              "type": "string"
            },
            {
              "internalType": "string",
              "name": "description",
              "type": "string"
            },
            {
              "internalType": "string",
              "name": "docUrl",
              "type": "string"
            },
            {
              "internalType": "string",
              "name": "externalLink",
              "type": "string"
            },
            {
              "internalType": "address",
              "name": "creator",
              "type": "address"
            },
            {
              "internalType": "uint256",
              "name": "timestamp",
              "type": "uint256"
            },
            {
              "internalType": "uint256",
              "name": "price",
              "type": "uint256"
            },
            {
              "internalType": "bool",
              "name": "deleted",
              "type": "bool"
            }
          ],
          "internalType": "struct IdeaMarket.Idea[]",
          "name": "",
          "type": "tuple[]"
        }
      ],
      "stateMutability": "view",
      "type": "function"
    },
    {
      "inputs": [
        {
          "internalType": "uint256",
          "name": "id",
          "type": "uint256"
        }
      ],
      "name": "getIdeaDetails",
      "outputs": [
        {
          "internalType": "string",
          "name": "",
          "type": "string"
        },
        {
          "internalType": "string",
          "name": "",
          "type": "string"
        },
        {
          "internalType": "string",
          "name": "",
          "type": "string"
        }
      ],
      "stateMutability": "view",
      "type": "function"
    },
    {
      "inputs": [
        {
          "internalType": "uint256",
          "name": "",
          "type": "uint256"
        }
      ],
      "name": "ideas",
      "outputs": [
        {
          "internalType": "uint256",
          "name": "id",
          "type": "uint256"
        },
        {
          "internalType": "string",
          "name": "title",
          "type": "string"
        },
        {
          "internalType": "string",
          "name": "description",
          "type": "string"
        },
        {
          "internalType": "string",
          "name": "docUrl",
          "type": "string"
        },
        {
          "internalType": "string",
          "name": "externalLink",
          "type": "string"
        },
        {
          "internalType": "address",
          "name": "creator",
          "type": "address"
        },
        {
          "internalType": "uint256",
          "name": "timestamp",
          "type": "uint256"
        },
        {
          "internalType": "uint256",
          "name": "price",
          "type": "uint256"
        },
        {
          "internalType": "bool",
          "name": "deleted",
          "type": "bool"
        }
      ],
      "stateMutability": "view",
      "type": "function"
    },
    {
      "inputs": [],
      "name": "nextId",
      "outputs": [
        {
          "internalType": "uint256",
          "name": "",
          "type": "uint256"
        }
      ],
      "stateMutability": "view",
      "type": "function"
    },
    {
      "inputs": [
        {
          "internalType": "string",
          "name": "_title",
          "type": "string"
        },
        {
          "internalType": "string",
          "name": "_description",
          "type": "string"
        },
        {
          "internalType": "string",
          "name": "_docUrl",
          "type": "string"
        },
        {
          "internalType": "string",
          "name": "_externalLink",
          "type": "string"
        },
        {
          "internalType": "uint256",
          "name": "_price",
          "type": "uint256"
        }
      ],
      "name": "submitIdea",
      "outputs": [],
      "stateMutability": "nonpayable",
      "type": "function"
    }
  ],
  "bytecode": "0x608060405234801561001057600080fd5b506124b0806100206000396000f3fe6080604052600436106100855760003560e01c806361b8ce8c1161005957806361b8ce8c1461014657806395b5383714610171578063da0ade50146101b6578063e50c3dae146101f3578063f39cacbb1461021c57610085565b8062b411651461008a5780633a9e6af0146100c957806349836439146100f457806353e1f6861461011d575b600080fd5b34801561009657600080fd5b506100b160048036038101906100ac919061158a565b610238565b6040516100c093929190611647565b60405180910390f35b3480156100d557600080fd5b506100de61059c565b6040516100eb91906118e4565b60405180910390f35b34801561010057600080fd5b5061011b6004803603810190610116919061158a565b6109c2565b005b34801561012957600080fd5b50610144600480360381019061013f9190611a3b565b610b66565b005b34801561015257600080fd5b5061015b610d12565b6040516101689190611b35565b60405180910390f35b34801561017d57600080fd5b506101986004803603810190610193919061158a565b610d18565b6040516101ad99989796959493929190611b6e565b60405180910390f35b3480156101c257600080fd5b506101dd60048036038101906101d8919061158a565b610fb3565b6040516101ea9190611c17565b60405180910390f35b3480156101ff57600080fd5b5061021a60048036038101906102159190611c32565b610fe6565b005b6102366004803603810190610231919061158a565b6111d1565b005b606080606060008085815260200190815260200160002060050160009054906101000a900473ffffffffffffffffffffffffffffffffffffffff1673ffffffffffffffffffffffffffffffffffffffff163373ffffffffffffffffffffffffffffffffffffffff16148061030a57506001600085815260200190815260200160002060009054906101000a900473ffffffffffffffffffffffffffffffffffffffff1673ffffffffffffffffffffffffffffffffffffffff163373ffffffffffffffffffffffffffffffffffffffff16145b610349576040517f08c379a000000000000000000000000000000000000000000000000000000000815260040161034090611d7b565b60405180910390fd5b60008085815260200190815260200160002060080160009054906101000a900460ff16156103ac576040517f08c379a00000000000000000000000000000000000000000000000000000000081526004016103a390611de7565b60405180910390fd5b6000808581526020019081526020016000206002016000808681526020019081526020016000206003016000808781526020019081526020016000206004018280546103f790611e36565b80601f016020809104026020016040519081016040528092919081815260200182805461042390611e36565b80156104705780601f1061044557610100808354040283529160200191610470565b820191906000526020600020905b81548152906001019060200180831161045357829003601f168201915b5050505050925081805461048390611e36565b80601f01602080910402602001604051908101604052809291908181526020018280546104af90611e36565b80156104fc5780601f106104d1576101008083540402835291602001916104fc565b820191906000526020600020905b8154815290600101906020018083116104df57829003601f168201915b5050505050915080805461050f90611e36565b80601f016020809104026020016040519081016040528092919081815260200182805461053b90611e36565b80156105885780601f1061055d57610100808354040283529160200191610588565b820191906000526020600020905b81548152906001019060200180831161056b57829003601f168201915b505050505090509250925092509193909250565b60606000805b6002548110156105f55760008082815260200190815260200160002060080160009054906101000a900460ff166105e25781806105de90611e96565b9250505b80806105ed90611e96565b9150506105a2565b5060008167ffffffffffffffff81111561061257610611611910565b5b60405190808252806020026020018201604052801561064b57816020015b6106386114dc565b8152602001906001900390816106305790505b5090506000805b6002548110156109b85760008082815260200190815260200160002060080160009054906101000a900460ff166109a55760008082815260200190815260200160002060405180610120016040529081600082015481526020016001820180546106bb90611e36565b80601f01602080910402602001604051908101604052809291908181526020018280546106e790611e36565b80156107345780601f1061070957610100808354040283529160200191610734565b820191906000526020600020905b81548152906001019060200180831161071757829003601f168201915b5050505050815260200160028201805461074d90611e36565b80601f016020809104026020016040519081016040528092919081815260200182805461077990611e36565b80156107c65780601f1061079b576101008083540402835291602001916107c6565b820191906000526020600020905b8154815290600101906020018083116107a957829003601f168201915b505050505081526020016003820180546107df90611e36565b80601f016020809104026020016040519081016040528092919081815260200182805461080b90611e36565b80156108585780601f1061082d57610100808354040283529160200191610858565b820191906000526020600020905b81548152906001019060200180831161083b57829003601f168201915b5050505050815260200160048201805461087190611e36565b80601f016020809104026020016040519081016040528092919081815260200182805461089d90611e36565b80156108ea5780601f106108bf576101008083540402835291602001916108ea565b820191906000526020600020905b8154815290600101906020018083116108cd57829003601f168201915b505050505081526020016005820160009054906101000a900473ffffffffffffffffffffffffffffffffffffffff1673ffffffffffffffffffffffffffffffffffffffff1673ffffffffffffffffffffffffffffffffffffffff16815260200160068201548152602001600782015481526020016008820160009054906101000a900460ff16151515158152505083838151811061098b5761098a611ede565b5b602002602001018190525081806109a190611e96565b9250505b80806109b090611e96565b915050610652565b5081935050505090565b3373ffffffffffffffffffffffffffffffffffffffff1660008083815260200190815260200160002060050160009054906101000a900473ffffffffffffffffffffffffffffffffffffffff1673ffffffffffffffffffffffffffffffffffffffff1614610a65576040517f08c379a0000000000000000000000000000000000000000000000000000000008152600401610a5c90611f59565b60405180910390fd5b60008082815260200190815260200160002060080160009054906101000a900460ff1615610ac8576040517f08c379a0000000000000000000000000000000000000000000000000000000008152600401610abf90611fc5565b60405180910390fd5b600160008083815260200190815260200160002060080160006101000a81548160ff0219169083151502179055506001600082815260200190815260200160002060006101000a81549073ffffffffffffffffffffffffffffffffffffffff02191690557f3ddb24a815b37b3dc4da5b36c3597c1f761d47ee7829b98aada97d92ce8baa3481604051610b5b9190611b35565b60405180910390a150565b60405180610120016040528060025481526020018681526020018581526020018481526020018381526020013373ffffffffffffffffffffffffffffffffffffffff168152602001428152602001828152602001600015158152506000806002548152602001908152602001600020600082015181600001556020820151816001019081610bf49190612191565b506040820151816002019081610c0a9190612191565b506060820151816003019081610c209190612191565b506080820151816004019081610c369190612191565b5060a08201518160050160006101000a81548173ffffffffffffffffffffffffffffffffffffffff021916908373ffffffffffffffffffffffffffffffffffffffff16021790555060c0820151816006015560e082015181600701556101008201518160080160006101000a81548160ff0219169083151502179055509050507fdb39f6b5c0086f053fbef498472d1048064a2dd44342e507d68f52d0d5808fe76002548633604051610ceb93929190612263565b60405180910390a160026000815480929190610d0690611e96565b91905055505050505050565b60025481565b6000602052806000526040600020600091509050806000015490806001018054610d4190611e36565b80601f0160208091040260200160405190810160405280929190818152602001828054610d6d90611e36565b8015610dba5780601f10610d8f57610100808354040283529160200191610dba565b820191906000526020600020905b815481529060010190602001808311610d9d57829003601f168201915b505050505090806002018054610dcf90611e36565b80601f0160208091040260200160405190810160405280929190818152602001828054610dfb90611e36565b8015610e485780601f10610e1d57610100808354040283529160200191610e48565b820191906000526020600020905b815481529060010190602001808311610e2b57829003601f168201915b505050505090806003018054610e5d90611e36565b80601f0160208091040260200160405190810160405280929190818152602001828054610e8990611e36565b8015610ed65780601f10610eab57610100808354040283529160200191610ed6565b820191906000526020600020905b815481529060010190602001808311610eb957829003601f168201915b505050505090806004018054610eeb90611e36565b80601f0160208091040260200160405190810160405280929190818152602001828054610f1790611e36565b8015610f645780601f10610f3957610100808354040283529160200191610f64565b820191906000526020600020905b815481529060010190602001808311610f4757829003601f168201915b5050505050908060050160009054906101000a900473ffffffffffffffffffffffffffffffffffffffff16908060060154908060070154908060080160009054906101000a900460ff16905089565b60016020528060005260406000206000915054906101000a900473ffffffffffffffffffffffffffffffffffffffff1681565b3373ffffffffffffffffffffffffffffffffffffffff1660008088815260200190815260200160002060050160009054906101000a900473ffffffffffffffffffffffffffffffffffffffff1673ffffffffffffffffffffffffffffffffffffffff1614611089576040517f08c379a000000000000000000000000000000000000000000000000000000000815260040161108090611f59565b60405180910390fd5b60008087815260200190815260200160002060080160009054906101000a900460ff16156110ec576040517f08c379a00000000000000000000000000000000000000000000000000000000081526004016110e3906122ed565b60405180910390fd5b84600080888152602001908152602001600020600101908161110e9190612191565b508360008088815260200190815260200160002060020190816111319190612191565b508260008088815260200190815260200160002060030190816111549190612191565b508160008088815260200190815260200160002060040190816111779190612191565b5080600080888152602001908152602001600020600701819055507f6e69f58749a6034130f6cf5795562f58fd8a4469bcbb023da67cdfa87e4c89e2866040516111c19190611b35565b60405180910390a1505050505050565b600073ffffffffffffffffffffffffffffffffffffffff1660008083815260200190815260200160002060050160009054906101000a900473ffffffffffffffffffffffffffffffffffffffff1673ffffffffffffffffffffffffffffffffffffffff1603611275576040517f08c379a000000000000000000000000000000000000000000000000000000000815260040161126c90612359565b60405180910390fd5b60008082815260200190815260200160002060080160009054906101000a900460ff16156112d8576040517f08c379a00000000000000000000000000000000000000000000000000000000081526004016112cf90611de7565b60405180910390fd5b60008082815260200190815260200160002060070154341015611330576040517f08c379a0000000000000000000000000000000000000000000000000000000008152600401611327906123c5565b60405180910390fd5b600073ffffffffffffffffffffffffffffffffffffffff166001600083815260200190815260200160002060009054906101000a900473ffffffffffffffffffffffffffffffffffffffff1673ffffffffffffffffffffffffffffffffffffffff16146113d2576040517f08c379a00000000000000000000000000000000000000000000000000000000081526004016113c990612431565b60405180910390fd5b336001600083815260200190815260200160002060006101000a81548173ffffffffffffffffffffffffffffffffffffffff021916908373ffffffffffffffffffffffffffffffffffffffff16021790555060008082815260200190815260200160002060050160009054906101000a900473ffffffffffffffffffffffffffffffffffffffff1673ffffffffffffffffffffffffffffffffffffffff166108fc349081150290604051600060405180830381858888f1935050505015801561149f573d6000803e3d6000fd5b507ff6bfdf1249554c67048545ce9e1c6b89280c0d6f655aa83547b2e2b3338c735c81336040516114d1929190612451565b60405180910390a150565b6040518061012001604052806000815260200160608152602001606081526020016060815260200160608152602001600073ffffffffffffffffffffffffffffffffffffffff16815260200160008152602001600081526020016000151581525090565b6000604051905090565b600080fd5b600080fd5b6000819050919050565b61156781611554565b811461157257600080fd5b50565b6000813590506115848161155e565b92915050565b6000602082840312156115a05761159f61154a565b5b60006115ae84828501611575565b91505092915050565b600081519050919050565b600082825260208201905092915050565b60005b838110156115f15780820151818401526020810190506115d6565b60008484015250505050565b6000601f19601f8301169050919050565b6000611619826115b7565b61162381856115c2565b93506116338185602086016115d3565b61163c816115fd565b840191505092915050565b60006060820190508181036000830152611661818661160e565b90508181036020830152611675818561160e565b90508181036040830152611689818461160e565b9050949350505050565b600081519050919050565b600082825260208201905092915050565b6000819050602082019050919050565b6116c881611554565b82525050565b600082825260208201905092915050565b60006116ea826115b7565b6116f481856116ce565b93506117048185602086016115d3565b61170d816115fd565b840191505092915050565b600073ffffffffffffffffffffffffffffffffffffffff82169050919050565b600061174382611718565b9050919050565b61175381611738565b82525050565b60008115159050919050565b61176e81611759565b82525050565b60006101208301600083015161178d60008601826116bf565b50602083015184820360208601526117a582826116df565b915050604083015184820360408601526117bf82826116df565b915050606083015184820360608601526117d982826116df565b915050608083015184820360808601526117f382826116df565b91505060a083015161180860a086018261174a565b5060c083015161181b60c08601826116bf565b5060e083015161182e60e08601826116bf565b50610100830151611843610100860182611765565b508091505092915050565b600061185a8383611774565b905092915050565b6000602082019050919050565b600061187a82611693565b611884818561169e565b935083602082028501611896856116af565b8060005b858110156118d257848403895281516118b3858261184e565b94506118be83611862565b925060208a0199505060018101905061189a565b50829750879550505050505092915050565b600060208201905081810360008301526118fe818461186f565b905092915050565b600080fd5b600080fd5b7f4e487b7100000000000000000000000000000000000000000000000000000000600052604160045260246000fd5b611948826115fd565b810181811067ffffffffffffffff8211171561196757611966611910565b5b80604052505050565b600061197a611540565b9050611986828261193f565b919050565b600067ffffffffffffffff8211156119a6576119a5611910565b5b6119af826115fd565b9050602081019050919050565b82818337600083830152505050565b60006119de6119d98461198b565b611970565b9050828152602081018484840111156119fa576119f961190b565b5b611a058482856119bc565b509392505050565b600082601f830112611a2257611a21611906565b5b8135611a328482602086016119cb565b91505092915050565b600080600080600060a08688031215611a5757611a5661154a565b5b600086013567ffffffffffffffff811115611a7557611a7461154f565b5b611a8188828901611a0d565b955050602086013567ffffffffffffffff811115611aa257611aa161154f565b5b611aae88828901611a0d565b945050604086013567ffffffffffffffff811115611acf57611ace61154f565b5b611adb88828901611a0d565b935050606086013567ffffffffffffffff811115611afc57611afb61154f565b5b611b0888828901611a0d565b9250506080611b1988828901611575565b9150509295509295909350565b611b2f81611554565b82525050565b6000602082019050611b4a6000830184611b26565b92915050565b611b5981611738565b82525050565b611b6881611759565b82525050565b600061012082019050611b84600083018c611b26565b8181036020830152611b96818b61160e565b90508181036040830152611baa818a61160e565b90508181036060830152611bbe818961160e565b90508181036080830152611bd2818861160e565b9050611be160a0830187611b50565b611bee60c0830186611b26565b611bfb60e0830185611b26565b611c09610100830184611b5f565b9a9950505050505050505050565b6000602082019050611c2c6000830184611b50565b92915050565b60008060008060008060c08789031215611c4f57611c4e61154a565b5b6000611c5d89828a01611575565b965050602087013567ffffffffffffffff811115611c7e57611c7d61154f565b5b611c8a89828a01611a0d565b955050604087013567ffffffffffffffff811115611cab57611caa61154f565b5b611cb789828a01611a0d565b945050606087013567ffffffffffffffff811115611cd857611cd761154f565b5b611ce489828a01611a0d565b935050608087013567ffffffffffffffff811115611d0557611d0461154f565b5b611d1189828a01611a0d565b92505060a0611d2289828a01611575565b9150509295509295509295565b7f4e6f7420617574686f72697a6564000000000000000000000000000000000000600082015250565b6000611d65600e836115c2565b9150611d7082611d2f565b602082019050919050565b60006020820190508181036000830152611d9481611d58565b9050919050565b7f496465612064656c657465640000000000000000000000000000000000000000600082015250565b6000611dd1600c836115c2565b9150611ddc82611d9b565b602082019050919050565b60006020820190508181036000830152611e0081611dc4565b9050919050565b7f4e487b7100000000000000000000000000000000000000000000000000000000600052602260045260246000fd5b60006002820490506001821680611e4e57607f821691505b602082108103611e6157611e60611e07565b5b50919050565b7f4e487b7100000000000000000000000000000000000000000000000000000000600052601160045260246000fd5b6000611ea182611554565b91507fffffffffffffffffffffffffffffffffffffffffffffffffffffffffffffffff8203611ed357611ed2611e67565b5b600182019050919050565b7f4e487b7100000000000000000000000000000000000000000000000000000000600052603260045260246000fd5b7f4e6f74207468652063726561746f720000000000000000000000000000000000600082015250565b6000611f43600f836115c2565b9150611f4e82611f0d565b602082019050919050565b60006020820190508181036000830152611f7281611f36565b9050919050565b7f416c72656164792064656c657465640000000000000000000000000000000000600082015250565b6000611faf600f836115c2565b9150611fba82611f79565b602082019050919050565b60006020820190508181036000830152611fde81611fa2565b9050919050565b60008190508160005260206000209050919050565b60006020601f8301049050919050565b600082821b905092915050565b6000600883026120477fffffffffffffffffffffffffffffffffffffffffffffffffffffffffffffffff8261200a565b612051868361200a565b95508019841693508086168417925050509392505050565b6000819050919050565b600061208e61208961208484611554565b612069565b611554565b9050919050565b6000819050919050565b6120a883612073565b6120bc6120b482612095565b848454612017565b825550505050565b600090565b6120d16120c4565b6120dc81848461209f565b505050565b5b81811015612100576120f56000826120c9565b6001810190506120e2565b5050565b601f8211156121455761211681611fe5565b61211f84611ffa565b8101602085101561212e578190505b61214261213a85611ffa565b8301826120e1565b50505b505050565b600082821c905092915050565b60006121686000198460080261214a565b1980831691505092915050565b60006121818383612157565b9150826002028217905092915050565b61219a826115b7565b67ffffffffffffffff8111156121b3576121b2611910565b5b6121bd8254611e36565b6121c8828285612104565b600060209050601f8311600181146121fb57600084156121e9578287015190505b6121f38582612175565b86555061225b565b601f19841661220986611fe5565b60005b828110156122315784890151825560018201915060208501945060208101905061220c565b8683101561224e578489015161224a601f891682612157565b8355505b6001600288020188555050505b505050505050565b60006060820190506122786000830186611b26565b818103602083015261228a818561160e565b90506122996040830184611b50565b949350505050565b7f49646561207761732064656c6574656400000000000000000000000000000000600082015250565b60006122d76010836115c2565b91506122e2826122a1565b602082019050919050565b60006020820190508181036000830152612306816122ca565b9050919050565b7f4964656120646f6573206e6f7420657869737400000000000000000000000000600082015250565b60006123436013836115c2565b915061234e8261230d565b602082019050919050565b6000602082019050818103600083015261237281612336565b9050919050565b7f496e73756666696369656e74207061796d656e74000000000000000000000000600082015250565b60006123af6014836115c2565b91506123ba82612379565b602082019050919050565b600060208201905081810360008301526123de816123a2565b9050919050565b7f416c726561647920626f75676874000000000000000000000000000000000000600082015250565b600061241b600e836115c2565b9150612426826123e5565b602082019050919050565b6000602082019050818103600083015261244a8161240e565b9050919050565b60006040820190506124666000830185611b26565b6124736020830184611b50565b939250505056fea264697066735822122037c571873fd2b56d250de5255121fcb289a039df888718fcd65de4aa64134acc64736f6c63430008140033",
  "linkReferences": {},
  "deployedLinkReferences": {}
}