{
  "_format": "hh-sol-artifact-1",
  "contractName": "IdeaMarket",
  "sourceName": "contracts/IdeaMarket.sol",
  "abi": [
    {
      "anonymous": false,
      "inputs": [
        {
          "indexed": false,
          "internalType": "uint256",
          "name": "id",
          "type": "uint256"
        },
        {
          "indexed": false,
          "internalType": "address",
          "name": "buyer",
          "type": "address"
        }
      ],
      "name": "IdeaBought",
      "type": "event"
    },
    {
      "anonymous": false,
      "inputs": [
        {
          "indexed": false,
          "internalType": "uint256",
          "name": "id",
          "type": "uint256"
        },
        {
          "indexed": false,
          "internalType": "string",
          "name": "title",
          "type": "string"
        },
        {
          "indexed": false,
          "internalType": "address",
          "name": "creator",
          "type": "address"
        }
      ],
      "name": "IdeaSubmitted",
      "type": "event"
    },
    {
      "inputs": [
        {
          "internalType": "uint256",
          "name": "id",
          "type": "uint256"
        }
      ],
      "name": "buyIdea",
      "outputs": [],
      "stateMutability": "payable",
      "type": "function"
    },
    {
      "inputs": [
        {
          "internalType": "uint256",
          "name": "",
          "type": "uint256"
        }
      ],
      "name": "buyerOf",
      "outputs": [
        {
          "internalType": "address",
          "name": "",
          "type": "address"
        }
      ],
      "stateMutability": "view",
      "type": "function"
    },
    {
      "inputs": [],
      "name": "getAllIdeas",
      "outputs": [
        {
          "components": [
            {
              "internalType": "uint256",
              "name": "id",
              "type": "uint256"
            },
            {
              "internalType": "string",
              "name": "title",
              "type": "string"
            },
            {
              "internalType": "string",
              "name": "description",
              "type": "string"
            },
            {
              "internalType": "string",
              "name": "docUrl",
              "type": "string"
            },
            {
              "internalType": "string",
              "name": "externalLink",
              "type": "string"
            },
            {
              "internalType": "address",
              "name": "creator",
              "type": "address"
            },
            {
              "internalType": "uint256",
              "name": "timestamp",
              "type": "uint256"
            },
            {
              "internalType": "uint256",
              "name": "price",
              "type": "uint256"
            }
          ],
          "internalType": "struct IdeaMarket.Idea[]",
          "name": "",
          "type": "tuple[]"
        }
      ],
      "stateMutability": "view",
      "type": "function"
    },
    {
      "inputs": [
        {
          "internalType": "uint256",
          "name": "id",
          "type": "uint256"
        }
      ],
      "name": "getIdeaDetails",
      "outputs": [
        {
          "internalType": "string",
          "name": "",
          "type": "string"
        },
        {
          "internalType": "string",
          "name": "",
          "type": "string"
        },
        {
          "internalType": "string",
          "name": "",
          "type": "string"
        }
      ],
      "stateMutability": "view",
      "type": "function"
    },
    {
      "inputs": [
        {
          "internalType": "uint256",
          "name": "",
          "type": "uint256"
        }
      ],
      "name": "ideas",
      "outputs": [
        {
          "internalType": "uint256",
          "name": "id",
          "type": "uint256"
        },
        {
          "internalType": "string",
          "name": "title",
          "type": "string"
        },
        {
          "internalType": "string",
          "name": "description",
          "type": "string"
        },
        {
          "internalType": "string",
          "name": "docUrl",
          "type": "string"
        },
        {
          "internalType": "string",
          "name": "externalLink",
          "type": "string"
        },
        {
          "internalType": "address",
          "name": "creator",
          "type": "address"
        },
        {
          "internalType": "uint256",
          "name": "timestamp",
          "type": "uint256"
        },
        {
          "internalType": "uint256",
          "name": "price",
          "type": "uint256"
        }
      ],
      "stateMutability": "view",
      "type": "function"
    },
    {
      "inputs": [],
      "name": "nextId",
      "outputs": [
        {
          "internalType": "uint256",
          "name": "",
          "type": "uint256"
        }
      ],
      "stateMutability": "view",
      "type": "function"
    },
    {
      "inputs": [
        {
          "internalType": "string",
          "name": "_title",
          "type": "string"
        },
        {
          "internalType": "string",
          "name": "_description",
          "type": "string"
        },
        {
          "internalType": "string",
          "name": "_docUrl",
          "type": "string"
        },
        {
          "internalType": "string",
          "name": "_externalLink",
          "type": "string"
        },
        {
          "internalType": "uint256",
          "name": "_price",
          "type": "uint256"
        }
      ],
      "name": "submitIdea",
      "outputs": [],
      "stateMutability": "nonpayable",
      "type": "function"
    }
  ],
  "bytecode": "0x608060405234801561001057600080fd5b50611c07806100206000396000f3fe60806040526004361061006f5760003560e01c806361b8ce8c1161004e57806361b8ce8c1461010757806395b5383714610132578063da0ade5014610176578063f39cacbb146101b35761006f565b8062b41165146100745780633a9e6af0146100b357806353e1f686146100de575b600080fd5b34801561008057600080fd5b5061009b60048036038101906100969190610fdc565b6101cf565b6040516100aa93929190611099565b60405180910390f35b3480156100bf57600080fd5b506100c86104d0565b6040516100d59190611306565b60405180910390f35b3480156100ea57600080fd5b506101056004803603810190610100919061145d565b61084c565b005b34801561011357600080fd5b5061011c6109ce565b6040516101299190611557565b60405180910390f35b34801561013e57600080fd5b5061015960048036038101906101549190610fdc565b6109d4565b60405161016d989796959493929190611581565b60405180910390f35b34801561018257600080fd5b5061019d60048036038101906101989190610fdc565b610c5c565b6040516101aa919061161b565b60405180910390f35b6101cd60048036038101906101c89190610fdc565b610c8f565b005b606080606060008085815260200190815260200160002060050160009054906101000a900473ffffffffffffffffffffffffffffffffffffffff1673ffffffffffffffffffffffffffffffffffffffff163373ffffffffffffffffffffffffffffffffffffffff1614806102a157506001600085815260200190815260200160002060009054906101000a900473ffffffffffffffffffffffffffffffffffffffff1673ffffffffffffffffffffffffffffffffffffffff163373ffffffffffffffffffffffffffffffffffffffff16145b6102e0576040517f08c379a00000000000000000000000000000000000000000000000000000000081526004016102d790611682565b60405180910390fd5b60008085815260200190815260200160002060020160008086815260200190815260200160002060030160008087815260200190815260200160002060040182805461032b906116d1565b80601f0160208091040260200160405190810160405280929190818152602001828054610357906116d1565b80156103a45780601f10610379576101008083540402835291602001916103a4565b820191906000526020600020905b81548152906001019060200180831161038757829003601f168201915b505050505092508180546103b7906116d1565b80601f01602080910402602001604051908101604052809291908181526020018280546103e3906116d1565b80156104305780601f1061040557610100808354040283529160200191610430565b820191906000526020600020905b81548152906001019060200180831161041357829003601f168201915b50505050509150808054610443906116d1565b80601f016020809104026020016040519081016040528092919081815260200182805461046f906116d1565b80156104bc5780601f10610491576101008083540402835291602001916104bc565b820191906000526020600020905b81548152906001019060200180831161049f57829003601f168201915b505050505090509250925092509193909250565b6060600060025467ffffffffffffffff8111156104f0576104ef611332565b5b60405190808252806020026020018201604052801561052957816020015b610516610f37565b81526020019060019003908161050e5790505b50905060005b600254811015610844576000808281526020019081526020016000206040518061010001604052908160008201548152602001600182018054610571906116d1565b80601f016020809104026020016040519081016040528092919081815260200182805461059d906116d1565b80156105ea5780601f106105bf576101008083540402835291602001916105ea565b820191906000526020600020905b8154815290600101906020018083116105cd57829003601f168201915b50505050508152602001600282018054610603906116d1565b80601f016020809104026020016040519081016040528092919081815260200182805461062f906116d1565b801561067c5780601f106106515761010080835404028352916020019161067c565b820191906000526020600020905b81548152906001019060200180831161065f57829003601f168201915b50505050508152602001600382018054610695906116d1565b80601f01602080910402602001604051908101604052809291908181526020018280546106c1906116d1565b801561070e5780601f106106e35761010080835404028352916020019161070e565b820191906000526020600020905b8154815290600101906020018083116106f157829003601f168201915b50505050508152602001600482018054610727906116d1565b80601f0160208091040260200160405190810160405280929190818152602001828054610753906116d1565b80156107a05780601f10610775576101008083540402835291602001916107a0565b820191906000526020600020905b81548152906001019060200180831161078357829003601f168201915b505050505081526020016005820160009054906101000a900473ffffffffffffffffffffffffffffffffffffffff1673ffffffffffffffffffffffffffffffffffffffff1673ffffffffffffffffffffffffffffffffffffffff1681526020016006820154815260200160078201548152505082828151811061082657610825611702565b5b6020026020010181905250808061083c90611760565b91505061052f565b508091505090565b60405180610100016040528060025481526020018681526020018581526020018481526020018381526020013373ffffffffffffffffffffffffffffffffffffffff1681526020014281526020018281525060008060025481526020019081526020016000206000820151816000015560208201518160010190816108d19190611954565b5060408201518160020190816108e79190611954565b5060608201518160030190816108fd9190611954565b5060808201518160040190816109139190611954565b5060a08201518160050160006101000a81548173ffffffffffffffffffffffffffffffffffffffff021916908373ffffffffffffffffffffffffffffffffffffffff16021790555060c0820151816006015560e082015181600701559050507fdb39f6b5c0086f053fbef498472d1048064a2dd44342e507d68f52d0d5808fe760025486336040516109a793929190611a26565b60405180910390a1600260008154809291906109c290611760565b91905055505050505050565b60025481565b60006020528060005260406000206000915090508060000154908060010180546109fd906116d1565b80601f0160208091040260200160405190810160405280929190818152602001828054610a29906116d1565b8015610a765780601f10610a4b57610100808354040283529160200191610a76565b820191906000526020600020905b815481529060010190602001808311610a5957829003601f168201915b505050505090806002018054610a8b906116d1565b80601f0160208091040260200160405190810160405280929190818152602001828054610ab7906116d1565b8015610b045780601f10610ad957610100808354040283529160200191610b04565b820191906000526020600020905b815481529060010190602001808311610ae757829003601f168201915b505050505090806003018054610b19906116d1565b80601f0160208091040260200160405190810160405280929190818152602001828054610b45906116d1565b8015610b925780601f10610b6757610100808354040283529160200191610b92565b820191906000526020600020905b815481529060010190602001808311610b7557829003601f168201915b505050505090806004018054610ba7906116d1565b80601f0160208091040260200160405190810160405280929190818152602001828054610bd3906116d1565b8015610c205780601f10610bf557610100808354040283529160200191610c20565b820191906000526020600020905b815481529060010190602001808311610c0357829003601f168201915b5050505050908060050160009054906101000a900473ffffffffffffffffffffffffffffffffffffffff16908060060154908060070154905088565b60016020528060005260406000206000915054906101000a900473ffffffffffffffffffffffffffffffffffffffff1681565b600073ffffffffffffffffffffffffffffffffffffffff1660008083815260200190815260200160002060050160009054906101000a900473ffffffffffffffffffffffffffffffffffffffff1673ffffffffffffffffffffffffffffffffffffffff1603610d33576040517f08c379a0000000000000000000000000000000000000000000000000000000008152600401610d2a90611ab0565b60405180910390fd5b60008082815260200190815260200160002060070154341015610d8b576040517f08c379a0000000000000000000000000000000000000000000000000000000008152600401610d8290611b1c565b60405180910390fd5b600073ffffffffffffffffffffffffffffffffffffffff166001600083815260200190815260200160002060009054906101000a900473ffffffffffffffffffffffffffffffffffffffff1673ffffffffffffffffffffffffffffffffffffffff1614610e2d576040517f08c379a0000000000000000000000000000000000000000000000000000000008152600401610e2490611b88565b60405180910390fd5b336001600083815260200190815260200160002060006101000a81548173ffffffffffffffffffffffffffffffffffffffff021916908373ffffffffffffffffffffffffffffffffffffffff16021790555060008082815260200190815260200160002060050160009054906101000a900473ffffffffffffffffffffffffffffffffffffffff1673ffffffffffffffffffffffffffffffffffffffff166108fc349081150290604051600060405180830381858888f19350505050158015610efa573d6000803e3d6000fd5b507ff6bfdf1249554c67048545ce9e1c6b89280c0d6f655aa83547b2e2b3338c735c8133604051610f2c929190611ba8565b60405180910390a150565b6040518061010001604052806000815260200160608152602001606081526020016060815260200160608152602001600073ffffffffffffffffffffffffffffffffffffffff16815260200160008152602001600081525090565b6000604051905090565b600080fd5b600080fd5b6000819050919050565b610fb981610fa6565b8114610fc457600080fd5b50565b600081359050610fd681610fb0565b92915050565b600060208284031215610ff257610ff1610f9c565b5b600061100084828501610fc7565b91505092915050565b600081519050919050565b600082825260208201905092915050565b60005b83811015611043578082015181840152602081019050611028565b60008484015250505050565b6000601f19601f8301169050919050565b600061106b82611009565b6110758185611014565b9350611085818560208601611025565b61108e8161104f565b840191505092915050565b600060608201905081810360008301526110b38186611060565b905081810360208301526110c78185611060565b905081810360408301526110db8184611060565b9050949350505050565b600081519050919050565b600082825260208201905092915050565b6000819050602082019050919050565b61111a81610fa6565b82525050565b600082825260208201905092915050565b600061113c82611009565b6111468185611120565b9350611156818560208601611025565b61115f8161104f565b840191505092915050565b600073ffffffffffffffffffffffffffffffffffffffff82169050919050565b60006111958261116a565b9050919050565b6111a58161118a565b82525050565b6000610100830160008301516111c46000860182611111565b50602083015184820360208601526111dc8282611131565b915050604083015184820360408601526111f68282611131565b915050606083015184820360608601526112108282611131565b9150506080830151848203608086015261122a8282611131565b91505060a083015161123f60a086018261119c565b5060c083015161125260c0860182611111565b5060e083015161126560e0860182611111565b508091505092915050565b600061127c83836111ab565b905092915050565b6000602082019050919050565b600061129c826110e5565b6112a681856110f0565b9350836020820285016112b885611101565b8060005b858110156112f457848403895281516112d58582611270565b94506112e083611284565b925060208a019950506001810190506112bc565b50829750879550505050505092915050565b600060208201905081810360008301526113208184611291565b905092915050565b600080fd5b600080fd5b7f4e487b7100000000000000000000000000000000000000000000000000000000600052604160045260246000fd5b61136a8261104f565b810181811067ffffffffffffffff8211171561138957611388611332565b5b80604052505050565b600061139c610f92565b90506113a88282611361565b919050565b600067ffffffffffffffff8211156113c8576113c7611332565b5b6113d18261104f565b9050602081019050919050565b82818337600083830152505050565b60006114006113fb846113ad565b611392565b90508281526020810184848401111561141c5761141b61132d565b5b6114278482856113de565b509392505050565b600082601f83011261144457611443611328565b5b81356114548482602086016113ed565b91505092915050565b600080600080600060a0868803121561147957611478610f9c565b5b600086013567ffffffffffffffff81111561149757611496610fa1565b5b6114a38882890161142f565b955050602086013567ffffffffffffffff8111156114c4576114c3610fa1565b5b6114d08882890161142f565b945050604086013567ffffffffffffffff8111156114f1576114f0610fa1565b5b6114fd8882890161142f565b935050606086013567ffffffffffffffff81111561151e5761151d610fa1565b5b61152a8882890161142f565b925050608061153b88828901610fc7565b9150509295509295909350565b61155181610fa6565b82525050565b600060208201905061156c6000830184611548565b92915050565b61157b8161118a565b82525050565b600061010082019050611597600083018b611548565b81810360208301526115a9818a611060565b905081810360408301526115bd8189611060565b905081810360608301526115d18188611060565b905081810360808301526115e58187611060565b90506115f460a0830186611572565b61160160c0830185611548565b61160e60e0830184611548565b9998505050505050505050565b60006020820190506116306000830184611572565b92915050565b7f4e6f7420617574686f72697a6564000000000000000000000000000000000000600082015250565b600061166c600e83611014565b915061167782611636565b602082019050919050565b6000602082019050818103600083015261169b8161165f565b9050919050565b7f4e487b7100000000000000000000000000000000000000000000000000000000600052602260045260246000fd5b600060028204905060018216806116e957607f821691505b6020821081036116fc576116fb6116a2565b5b50919050565b7f4e487b7100000000000000000000000000000000000000000000000000000000600052603260045260246000fd5b7f4e487b7100000000000000000000000000000000000000000000000000000000600052601160045260246000fd5b600061176b82610fa6565b91507fffffffffffffffffffffffffffffffffffffffffffffffffffffffffffffffff820361179d5761179c611731565b5b600182019050919050565b60008190508160005260206000209050919050565b60006020601f8301049050919050565b600082821b905092915050565b60006008830261180a7fffffffffffffffffffffffffffffffffffffffffffffffffffffffffffffffff826117cd565b61181486836117cd565b95508019841693508086168417925050509392505050565b6000819050919050565b600061185161184c61184784610fa6565b61182c565b610fa6565b9050919050565b6000819050919050565b61186b83611836565b61187f61187782611858565b8484546117da565b825550505050565b600090565b611894611887565b61189f818484611862565b505050565b5b818110156118c3576118b860008261188c565b6001810190506118a5565b5050565b601f821115611908576118d9816117a8565b6118e2846117bd565b810160208510156118f1578190505b6119056118fd856117bd565b8301826118a4565b50505b505050565b600082821c905092915050565b600061192b6000198460080261190d565b1980831691505092915050565b6000611944838361191a565b9150826002028217905092915050565b61195d82611009565b67ffffffffffffffff81111561197657611975611332565b5b61198082546116d1565b61198b8282856118c7565b600060209050601f8311600181146119be57600084156119ac578287015190505b6119b68582611938565b865550611a1e565b601f1984166119cc866117a8565b60005b828110156119f4578489015182556001820191506020850194506020810190506119cf565b86831015611a115784890151611a0d601f89168261191a565b8355505b6001600288020188555050505b505050505050565b6000606082019050611a3b6000830186611548565b8181036020830152611a4d8185611060565b9050611a5c6040830184611572565b949350505050565b7f4964656120646f6573206e6f7420657869737400000000000000000000000000600082015250565b6000611a9a601383611014565b9150611aa582611a64565b602082019050919050565b60006020820190508181036000830152611ac981611a8d565b9050919050565b7f496e73756666696369656e74207061796d656e74000000000000000000000000600082015250565b6000611b06601483611014565b9150611b1182611ad0565b602082019050919050565b60006020820190508181036000830152611b3581611af9565b9050919050565b7f416c726561647920626f75676874000000000000000000000000000000000000600082015250565b6000611b72600e83611014565b9150611b7d82611b3c565b602082019050919050565b60006020820190508181036000830152611ba181611b65565b9050919050565b6000604082019050611bbd6000830185611548565b611bca6020830184611572565b939250505056fea264697066735822122031f7017d8e7ea5d487dc4d090337bbecb82055242c3b7c0de4473bae5425fe9f64736f6c63430008140033",
  "linkReferences": {},
  "deployedLinkReferences": {}
}